:020000040800F2
:10000000881002204503000859180008BB17000893
:1000100055180008C7070008D72A0008000000008C
:100020000000000000000000000000008D02000839
:100030007115000800000000E1020008B52000086A
:1000400069030008690300086903000869030008E0
:1000500069030008690300086903000869030008D0
:1000600069030008690300086903000869030008C0
:1000700069030008690300086903000869030008B0
:1000800069030008690300086903000869030008A0
:10009000CD070008690300086903000899160008E5
:1000A0006903000869030008690300086903000880
:1000B000690300082D21000869030008690300088E
:1000C0006903000869030008690300086903000860
:1000D000690300083D270008690300086903000858
:1000E0006903000869030008690300086903000840
:1000F0006903000869030008690300086903000830
:10010000690300086903000869030008690300081F
:1001100069030008690300085D21000869030008FD
:1001200069030008690300086903000869030008FF
:1001300069030008690300086903000869030008EF
:100140000D09000869030008690300086903000835
:1001500075120008690300086903000869030008B4
:1001600069030008690300086903000869030008BF
:100170006903000869030008690300080000000023
:10018000690300086903000869030008690300089F
:10019000690300086903000869030008690300088F
:1001A00000000000000000006903000800F002F8F1
:1001B00000F05CF80AA090E8000C82448344AAF1A5
:1001C0000107DA4501D100F051F8AFF2090EBAE8A3
:1001D0000F0013F0010F18BFFB1A43F0010318477B
:1001E000B45A0000D45A00000A444FF0000C10F832
:1001F000013B13F0070408BF10F8014B1D1108BFA5
:1002000010F8015B641E05D010F8016B641E01F844
:10021000016BF9D113F0080F1EBF10F8014BAD1C94
:100220000C1B09D16D1E58BF01F801CBFAD505E0B2
:1002300014F8016B01F8016B6D1EF9D59142D6D30C
:10024000704700000023002400250026103A28BF34
:1002500078C1FBD8520728BF30C148BF0B60704738
:100260001FB505F005FD1FBD10B510BD00F060F90C
:100270001146FFF7F5FF03F0EFFB00F07EF903B442
:10028000FFF7F2FF03BC00F081F900002A4B196868
:100290000868B0E8F04F80F30988BFF36F8F4FF024
:1002A000000080F3118870470000000006480068D5
:1002B000006880F3088862B661B6BFF34F8FBFF362
:1002C0006F8F00DF00BF00BF08ED00E0DFF80C001B
:1002D000016841F470010160704700BF88ED00E0E3
:1002E000EFF30980BFF36F8F134B1A681EF0100FE6
:1002F00008BF20ED108A20E9F04F106008B44FF0DD
:10030000500080F31188BFF34F8FBFF36F8F04F05D
:1003100021FE4FF0000080F3118808BC19680868BE
:10032000B0E8F04F1EF0100F08BFB0EC108A80F359
:100330000988BFF36F8F704724000020EFF305801A
:10034000704700000C48016841F4700101600B48DF
:1003500080470B480047FEE7FEE7FEE7FEE7FEE7C3
:10036000FEE7FEE7FEE7FEE7FEE700000548064978
:10037000044A064B7047000088ED00E0C5200008E5
:10038000AD010008880C022088100220880C022091
:10039000032A40F2308010F0030C00F0158011F8B1
:1003A000013BBCF1020F624498BF11F801CB00F889
:1003B000013B38BF11F8013BA2F1040298BF00F8DD
:1003C00001CB38BF00F8013B11F0030300F025809A
:1003D000083AC0F0088051F8043B083A51F804CBC1
:1003E000A0E80810F5E7121D5CBF51F8043B40F887
:1003F000043BAFF30080D20724BF11F8013B11F892
:1004000001CB48BF11F8012B24BF00F8013B00F8D5
:1004100001CB48BF00F8012B704710B5203AC0F05F
:100420000B80B1E81850203AA0E81850B1E81850F5
:10043000A0E81850BFF4F5AF5FEA027C24BFB1E832
:100440001850A0E8185044BF18C918C0BDE81040A3
:100450005FEA827C24BF51F8043B40F8043B08BFAC
:100460007047D20728BF31F8023B48BF11F8012B73
:1004700028BF20F8023B48BF00F8012B704702F06C
:10048000FF0343EA032242EA024200F02CB84FF095
:10049000000200B5134694469646203922BFA0E8D4
:1004A0000C50A0E80C50B1F12001BFF4F7AF0907E0
:1004B00028BFA0E80C5048BF0CC05DF804EB8900D1
:1004C00028BF40F8042B08BF704748BF20F8022B14
:1004D00011F0804F18BF00F8012B7047704770472C
:1004E00070474FF000020429C0F0128010F0030C96
:1004F0003FF4CFAFCCF1040CBCF1020F18BF00F8F1
:10050000012BA8BF20F8022BA1EB0C01FFF7C1BF04
:100510005FEAC17C24BF00F8012B00F8012B48BF23
:1005200000F8012B7047000000487047280C02209B
:100530007546FFF7F9FFAE4605006946534620F0C1
:100540000700854618B020B5FFF710FFBDE8204032
:100550004FF000064FF000074FF000084FF0000B7F
:1005600021F00701AC46ACE8C009ACE8C009ACE832
:10057000C009ACE8C0098D46704710B50446AFF31A
:1005800000802046BDE81040FFF779BE01491820E1
:10059000ABBEFEE7260002007047CA430260704708
:1005A00021B1826842F00102826003E0826822F099
:1005B00001028260704700000021084A1168084A61
:1005C0001140D0E900231A4383681A43C3681A43D1
:1005D0001143044AC2F80413704700000423014089
:1005E000E030FCFF002001400146C86C80B270473B
:1005F0000246002013680B400BB1012000E00020F0
:100600007047000030B50246002000235068104CAF
:1006100020400D790C6844EA05242043506090681E
:100620000C4C2040D1E903542C438D682C434D7968
:1006300044EA450420439060D06A20F470000C7DA9
:10064000641EE4B2234340EA0350D06230BD000090
:10065000FFFEFFFCFDF7FFC0F0B504460D4600208D
:100660000021092D11DDE068A5F10A0606EB460719
:10067000072606FA07F18843A5F10A0606EB4606A7
:1006800003FA06F10843E0600CE0206905EB45073A
:10069000072606FA07F1884305EB450603FA06F13B
:1006A00008432061072A0FDA606B561E06EB8607A7
:1006B0001F2606FA07F18843561E06EB860605FA42
:1006C00006F10843606322E00D2A0FDA206BD61F83
:1006D00006EB86071F2606FA07F18843D61F06EBAE
:1006E000860605FA06F10843206310E0E06AA2F1ED
:1006F0000D0606EB86071F2606FA07F18843A2F1CE
:100700000D0606EB860605FA06F10843E062F0BD29
:10071000816841F0804181607047000038B108492C
:10072000096841F40001074AC2F8041306E00449CD
:10073000096821F40001034AC2F80413704700005D
:10074000042301400020014038B54FF4407001F00F
:10075000C1F84FF47A7002F0E1FE03F023F904F0DF
:1007600041F803F0AFF902F07BFF5A2147F2305015
:1007700002F0D8FB03F0EEF85A214EF6602001F0AB
:10078000FFFC002005231A460121009000F036F8F6
:10079000002005231A460121009000F0CFF8002424
:1007A00008E0204603F0C2F940F2C52002F014FF31
:1007B000601CC4B2042CF4DB03F0AEFF02F0E8FDD1
:1007C00002F08CF938BD00BFFEE7000010B5022131
:1007D000084800F047FA58B10221064800F06AF9CB
:1007E000054A0021034800F060FB034800F068FC64
:1007F00010BD0000006400408C0602202DE9F0418D
:100800008AB004460D4616461F46DDF84080012199
:10081000082001F091F90121480601F09DF901211C
:10082000480601F0A9F900214FF0007001F0A4F989
:100830000320089002208DF8240000208DF8260067
:1008400003208DF8250001208DF8270008A92D48E8
:1008500000F044FF092200212A4800F087FF092206
:100860000121284800F082FF00208DF81A000120A5
:100870008DF81B0000208DF81C008DF81D008DF8F0
:100880001E008DF81F008DF816808DF817408DF82A
:1008900018608DF81950ADF8147005A91A4800F0C9
:1008A0007AFA00208DF80E008DF80F0001208DF8E7
:1008B00010000020ADF80400ADF80600ADF8080007
:1008C000ADF80A00ADF80C0001208DF8110001A868
:1008D00000F044F9012202210B4800F053FA1420E1
:1008E0008DF8000004208DF8010000208DF8020032
:1008F00001208DF80300684600F0B0FF00200AB028
:10090000BDE8F081000C02400064004010B50221F7
:10091000084800F0A7F958B10221064800F0CAF8CB
:10092000054A0021034800F0C0FA034800F0C8FB64
:1009300010BD000000680040A00602202DE9F04133
:100940008AB004460D4616461F46DDF84080012158
:10095000022001F0F1F80121880601F0FDF80121E3
:10096000880601F009F900214FF0806001F004F9D8
:100970004FF44050089002208DF8240000208DF89C
:10098000260003208DF8250001208DF8270008A9F6
:100990002D4800F0A3FE09220C212B4800F0E6FEB2
:1009A00009220D21284800F0E1FE00208DF81A00F0
:1009B00001208DF81B0000208DF81C008DF81D0013
:1009C0008DF81E008DF81F008DF816808DF81740E9
:1009D0008DF818608DF81950ADF8147005A91B48F2
:1009E00000F0D9F90E208DF80E0000208DF80F00D0
:1009F00001208DF810000020ADF80400ADF80600CD
:100A0000ADF80800ADF80A00ADF80C0001208DF833
:100A1000110001A800F0A2F8012202210B4800F009
:100A2000B1F940208DF8000004208DF8010000206D
:100A30008DF8020001208DF80300684600F00EFFDB
:100A400000200AB0BDE8F0810004024000680040C8
:100A5000F0B585B004460D4616461F464FF40070AB
:100A6000009000208DF808008DF8090008208DF80E
:100A70000A00200A8DF80B00E1B28DF80C10290A4B
:100A80008DF80D10E9B28DF80E10310A8DF80F10A7
:100A9000F1B28DF81010390A8DF81110F9B28DF8F5
:100AA00012106946024800F078FA05B0F0BD000067
:100AB00000640040B1F5007F3AD00FDC202928D037
:100AC00006DC01291CD004291DD0082940D11DE0D5
:100AD000402921D0B1F5807F3AD126E0B1F5004F11
:100AE00031D006DCB1F5806F25D0B1F5006F2FD184
:100AF00024E0B1F5803F12D0B1F5003F28D111E0DC
:100B0000154A826025E00822C26022E01022C260FD
:100B10001FE0082202611CE01022026119E0082295
:100B2000426016E01022426013E00422426010E0AE
:100B3000042242600DE0042242600AE00022826149
:100B40000422426005E0002282610422426000E04B
:100B500000BF00BF704700000101010010B5002177
:100B6000837A012202FA03F13D4A126842F001023F
:100B70003B4B1A603A4A1C3212688A43384B1C338A
:100B80001A60027BCAB9364A0C3212688A43344B67
:100B90000C331A604288C38842EA0343304A403229
:100BA000847A42F834300288838842EA03432C4A2C
:100BB0004032847A02EBC4025360027B012A19D1CD
:100BC000274A0C3212680A43254B0C331A604288BC
:100BD000038842EA0343224A4032847A42F834309E
:100BE000C288838842EA03431D4A4032847A02EB7A
:100BF000C4025360C27A3AB9194A121D12688A4374
:100C0000174B1B1D1A6006E0154A121D12680A4395
:100C1000134B1B1D1A60028932B9114A1432126833
:100C20008A430F4B14331A600289012A06D10C4AF9
:100C3000143212680A430A4B14331A60427B012AA9
:100C400006D1074A1C3212680A43054B1C331A604E
:100C5000034A126822F00102014B1A6010BD000025
:100C60000066004070B504460D46002660692840C5
:100C7000002871D0B5F5807F5CD010DC082D35D010
:100C800006DC012D20D0022D24D0042D72D127E0C6
:100C9000102D31D0202D35D0402D6BD138E0B5F559
:100CA000004F60D009DCB5F5007F49D0B5F5806F05
:100CB0004CD0B5F5006F5DD14FE0B5F5803F2DD03C
:100CC000B5F5003F56D12FE0A0682D4900F0C8FAD5
:100CD000064651E0E068032100F0C2FA06464BE008
:100CE000E068082100F0BCFA064645E0E068102103
:100CF00000F0B6FA06463FE02069032100F0B0FAA2
:100D0000064639E02069082100F0AAFA064633E0D9
:100D10002069102100F0A4FA06462DE06068082141
:100D200000F09EFA064627E06068102100F098FA6D
:100D3000064621E0A069012100F092FA06461BE078
:100D4000A069022100F08CFA064615E0A069042192
:100D500000F086FA06460FE00FE0A069702100F06F
:100D60007FFA064608E06068042100F079FA06463A
:100D700002E0FFE7002600BF00E00026304670BD1D
:100D8000010101001AB143690B43436102E0436969
:100D90008B434361704730B502460020002314683E
:100DA00024F002041460146844F00104146000E0AC
:100DB0005B1C546804F001041CB94FF6FF74A34295
:100DC000F6D1546804F001040CB900206CE08C7971
:100DD000012C04D1146844F08004146003E014680A
:100DE00024F080041460CC79012C04D1146844F000
:100DF0004004146003E0146824F0400414600C7A8A
:100E0000012C04D1146844F02004146003E0146839
:100E100024F0200414604C7A012C04D1146844F0AE
:100E20001004146003E0146824F0100414608C7A39
:100E3000012C04D1146844F00804146003E0146821
:100E400024F008041460CC7A012C04D1146844F016
:100E50000404146003E0146824F0040414608C7823
:100E6000A407CD7844EA05640D7944EA05444D7938
:100E700044EA05540D886D1E2C43D461146824F097
:100E800001041460002300E05B1C546804F00104BA
:100E90001CB14FF6FF74A342F6D1546804F001046C
:100EA0000CB1002000E0012030BD10B500F5D87372
:100EB00003EB01131B6803F004031372137A53B995
:100EC00000F5D87303EB01131B6840F2FF7404EACA
:100ED0005353136009E000F5D87303EB01131B684B
:100EE0006FF0604404EAD303536000F5D87303EB5A
:100EF00001131B6803F00203537200F5D87303EB70
:100F000001135B6803F00F03937200F5D87303EBD2
:100F100001135B681B0AD37400F5D87303EB01134C
:100F20009B68D37200F5D87303EB01139B681C0A0E
:100F3000147300F5D87303EB01139B681C0C5473F6
:100F400000F5D87303EB01139B681B0E937300F538
:100F5000D87303EB0113DB68D37300F5D87303EB8D
:100F60000113DB681C0A147400F5D87303EB01133A
:100F7000DB681C0C547400F5D87303EB0113DB68B9
:100F80001B0E937421B9C36843F02003C36003E0D0
:100F9000036943F02003036110BD10B50246002031
:100FA000936803F08063B3F1806F00D110E0936821
:100FB00003F00063B3F1006F01D1012008E09368F2
:100FC00003F08053B3F1805F01D1022000E00420E0
:100FD000042874D002F5C07303EB00131B6803F000
:100FE000010402F5C07303EB00131C600B7A7BB99C
:100FF0004B7A0C8843EA445302F5C07404EB0014A6
:101000002468234302F5C07404EB0014236010E04D
:101010000B7A4C6843EAC4034C7A234302F5C0744C
:1010200004EB00142468234302F5C07404EB00149D
:1010300023608B7A03F00F038B7202F5C07303EB0E
:1010400000135B6823F00F0402F5C07303EB001379
:101050005C6002F5C07303EB00135B688C7A23437A
:1010600002F5C07404EB001463608B7B1C064B7BA1
:1010700044EA03440B7B44EA0323CC7A234302F57E
:10108000C07404EB0014A3608B7C1C064B7C44EA08
:1010900003440B7C44EA0323CC7B234302F5C07456
:1010A00004EB0014E36002F5C07303EB00131B684C
:1010B00043F0010402F5C07303EB00131C6010BD84
:1010C00010B504462068A0F2012008287ED2DFE88F
:1010D00000F0A6626364042342615B4800885A49B9
:1010E0000881207BE17A40EA012000B2564908805D
:1010F000A17B607B41EA002000B253498880217CBB
:10110000E07B41EA002000B24F494880607C887152
:10111000012000F02FFA95E04C4800884B490881E7
:10112000207BE17A40EA012000B248490880A17B97
:10113000607B41EA002000B244498880217CE07B4A
:1011400041EA002000B241494880607C8871022059
:1011500000F010FA76E03E4800883D490881207B87
:10116000E17A40EA012000B239490880A17B607B26
:1011700041EA002000B236494880217CE07B41EA08
:10118000002000B232498880607C8871032000F022
:10119000F1F957E000BF00BF00BF2078A0F5027052
:1011A0002C49087008460078C0EBC0002A4931F885
:1011B000200028490978C1EBC101274A02EB8101CF
:1011C0000881207BE17A40EA012000E039E000B2AA
:1011D00020490978C1EBC10122F82100A17B607B85
:1011E00041EA002000B21B490978C1EBC10102EBC2
:1011F00081014880217CE07B41EA002000B2154952
:101200000978C1EBC10102EB81018880607C114942
:101210000978C1EBC10102EB8101887112E00F482E
:1012200081698069401C0D4A9061322904D82146A9
:10123000104602F01FFB03E02146084802F0E0FAE6
:1012400000E000BF00BF10BD98050220B4050220D9
:10125000D0050220F4000020EC0502205C060220EC
:101260000246002002EA01030BB1012000E0002049
:101270007047000010B51049104800F029F9C8B1B6
:101280000D490E4800F022F802F00CFC04F098FA28
:1012900001280FD00A490B48006803F0E5FC084814
:1012A000006838B14FF0805007490860BFF34F8F96
:1012B000BFF36F8F10BD000000080020886402405B
:1012C0007C0100200001002004ED00E00246094BF3
:1012D0009A4201D2084801E00648103801F0005354
:1012E0001BB1064B0B40C36002E0044B0B40836014
:1012F0007047000010640240006002407D0F7D0FC7
:1013000021B1026842F00102026003E0026822F0AB
:101310000102026070470000016821F001010160D4
:101320000021016041608160C16001612121416152
:101330004A49884204D13D21484A103A91608CE0E4
:1013400046491831884205D14FF47461434A103A36
:10135000916082E041493031884205D14FF47411E7
:101360003E4A103A916078E03C494831884205D1C4
:101370004FF07461394A103A91606EE0374960313C
:10138000884204D13649354A103AD16065E0334984
:101390007831884204D13349304A103AD1605CE058
:1013A0002E499031884204D12F492C4A103AD160FD
:1013B00053E02A49A831884205D14FF03D51274AD0
:1013C000103AD16049E02949884204D13D21274A99
:1013D000083A116041E025491831884205D14FF49F
:1013E0007461224A083A116037E02049303188425E
:1013F00005D14FF474111D4A083A11602DE01B49C4
:101400004831884205D14FF07461184A083A11609A
:1014100023E016496031884204D11149134A121F52
:1014200011601AE011497831884204D10D490F4A00
:10143000121F116011E00D499031884204D10A4910
:101440000A4A121F116008E00849A831884204D1F5
:101450004FF03D51054A121F116070471060024065
:101460003D000020400F002000003D20106402409D
:1014700021B1026842F48022026003E0026822F493
:1014800080220260704722B1036843F400230360A6
:1014900003E0036823F40023036001617047014601
:1014A00000200A6802F001020AB1012000E00020D9
:1014B00070470146486880B27047014600200A68BC
:1014C00002F400220AB1012000E000207047000071
:1014D00030B503460A46002000240B4DAB4201D232
:1014E0000A4901E00849103902F000550DB14C6875
:1014F00000E00C68064D2C4004EA02050DB1012005
:1015000000E0002030BD0000106402400060024096
:101510007D0F7D0F10B500220268134B1A40CC6876
:101520000B6823434C6923438C692343CC692343D1
:101530000C6A23434C6A23438C6A23434C6B23433A
:101540008C6B23431A430260426922F00702D1E9FF
:101550000B3423431A4342610B6943604B68836039
:101560008B68C36010BD00003F801CF04160704775
:101570007047000010B5044604EBC400454901EB78
:101580008000006804EBC401424A02EB810148601C
:1015900004F026F904EBC4013E4A02EB8101086025
:1015A00004EBC400114601EB8000C07CC0F3801046
:1015B000B0B104EBC40001EB8000C07C20F040001F
:1015C00004EBC40102EB8101C87404EBC4001146B2
:1015D00001EB8000006804EBC40102EB8101C860EC
:1015E00004EBC4002B4901EB8000806990B304EB4D
:1015F000C401284A02EB81018869804758B304EB93
:10160000C400244901EB8000C07C20F02000203081
:1016100004EBC4011F4A02EB8101C87404EBC4004F
:10162000114601EB8000C07C20F08000803004EB8C
:10163000C40102EB8101C87404EBC400114601EB44
:101640008000006A28B304EBC40102EB8101086A40
:1016500080471EE00FE0FFE704EBC4000D4901EBFB
:101660008000C07C20F0800004EBC401094A02EB3A
:101670008101C8740DE004EBC400064901EB800051
:10168000C07C20F0800004EBC401024A02EB81011F
:10169000C87410BDB406022010B54FF4807000F07D
:1016A00011F840B14FF4807000F006F802F002FA31
:1016B000172000F021FC10BD0149086070470000B0
:1016C000143C014001460020034A12680A400AB156
:1016D000012000E000207047143C0140F0B50A46AC
:1016E00000210023002400BF3DE0012505FA01F39D
:1016F000156805EA03049C4234D105684F000326AF
:10170000BE40B543056015794E00B54006683543C7
:1017100005601579012D02D01579022D16D1856845
:101720004F000326BE40B543856055794E00B54055
:10173000866835438560456801268E40B54345601F
:10174000456896798E40B6B235434560C5684F000E
:101750000326BE40B543C560D5794E00B540C66886
:101760003543C560491C1029BFD3F0BDF0B5002337
:1017700000244D07ED0E02FA05F3CE1000F120050E
:1017800055F826504E07F70E0F26BE40B543CF1032
:1017900000F1200646F82750CE1000F1200555F83C
:1017A000265045EA0304CE1000F1200545F82640F6
:1017B000F0BD418370470183704700BFFEE7000022
:1017C00070B506460C4615461548007838B328888B
:1017D00088B9144890ED000A134880ED000A1148BA
:1017E00090ED010A104880ED010A0E4890ED020AC2
:1017F0000D4880ED020A0D4802782B460C490A4834
:1018000002F074F8084890ED000A84ED000A90EDAB
:10181000010A84ED010A90ED020A84ED020A70BD0E
:10182000740100203C0A0220480A02201C0A0220FF
:101830007C0A022091ED000A054A82ED000A91ED32
:10184000010A82ED010A91ED020A82ED020A704757
:101850003C0A022000BFFEE77047000070B500217F
:1018600000230F22C4781CB3174C246804F4E064EE
:10187000C4F5E064C4F30721C1F10404E3B20A41F2
:1018800044789C40E1B28478144021430C07210E37
:101890000E4C05786155047804F01F050124AC4016
:1018A00005786D11AD0005F1E025C5F8004109E0AE
:1018B000047804F01F050124AC40054D067876112C
:1018C00045F8264070BD00000CED00E000E400E0AB
:1018D00080E100E002490143024A116070470000C4
:1018E0000000FA050CED00E0B0EE401A10B99FEDD3
:1018F000790A704790ED100A80ED110A90ED0F0AF9
:1019000080ED100AC0ED060A80ED071A30EEC10A1C
:1019100080ED0F0A0178002975D190ED010AD0ED14
:101920000F1A20EE210A80ED090A90ED0A0AD0ED87
:10193000021A90ED0F2A01EE820A80ED0A0A90ED5C
:101940000D0A80ED0E0A90ED0C0A80ED0D0A90ED67
:101950000F0AD0ED101A30EE610A80ED0C0A90EDFE
:10196000030AD0ED0C1A20EE210A80ED0B0A90ED4F
:101970000A0AD0ED051AB4EEE10AF1EE10FA04DD20
:1019800090ED050A80ED0A0A10E090ED0A0AD0ED0C
:10199000051AF1EE611AB4EEE10AF1EE10FA05D281
:1019A00090ED050AB1EE400A80ED0A0A90ED090AB1
:1019B000D0ED0A1A30EE210AD0ED0B1A30EE210AD2
:1019C00080ED080A90ED080AD0ED041AB4EEE10AA1
:1019D000F1EE10FA04DD90ED040A80ED080A76E0DD
:1019E00090ED080AD0ED041AF1EE611AB4EEE10AA6
:1019F000F1EE10FA6BD290ED040AB1EE400A80EDE0
:101A0000080A64E0FFE70178012960D190ED0F0A30
:101A1000D0ED101A30EE610AD0ED011A20EE210A45
:101A200080ED090A90ED020AD0ED0F1A20EE210A8E
:101A300080ED0A0A90ED0D0A80ED0E0A90ED0C0A79
:101A400080ED0D0A90ED0F0AD0ED101AB0EE002ACD
:101A500002EE610AD0ED111A30EE210A80ED0C0A77
:101A600090ED030AD0ED0C1A20EE210A80ED0B0A4E
:101A700090ED090AD0ED0A1A30EE210AD0ED0B1ACA
:101A800030EE210AD0ED081A30EE210A80ED080A66
:101A900090ED080AD0ED041AB4EEE10AF1EE10FA66
:101AA00004DD90ED040A80ED080A10E090ED080ACC
:101AB000D0ED041AF1EE611AB4EEE10AF1EE10FA7B
:101AC00005D290ED040AB1EE400A80ED080A90EDCF
:101AD000080A0EE70000000000B102B9704701706B
:101AE00092ED001A80ED011A92ED011A80ED021AB2
:101AF00092ED021A80ED031A80ED040AC0ED050A8A
:101B00009FED0C1A80ED0E1A80ED0D1A80ED0C1A67
:101B10009FED081A80ED081A80ED0B1A80ED0A1A65
:101B200080ED091A80ED111A80ED101A80ED0F1A60
:101B300000BFD3E70000000029B1064A1268024343
:101B4000044B1A6004E0034A12688243014B1A6096
:101B5000704700003038024029B1064A126802433B
:101B6000044B1A6004E0034A12688243014B1A6076
:101B7000704700004038024029B1064A126802430B
:101B8000044B1A6004E0034A12688243014B1A6056
:101B9000704700002038024029B1064A126802430B
:101BA000044B1A6004E0034A12688243014B1A6036
:101BB000704700004438024029B1064A12680243C7
:101BC000044B1A6004E0034A12688243014B1A6016
:101BD0007047000024380240F0B5002100220024A4
:101BE000022500260223324F3F6807F00C0121B185
:101BF000042905D0082937D105E02E4F076036E0CB
:101C00002D4F076033E02A4F3F1F3F68C7F38056D0
:101C1000274F3F1F3F6807F03F036EB1264FB7FBCA
:101C2000F3F7DFF88CC0ACF1040CDCF800C0CCF3A7
:101C3000881C07FB0CF40CE01E4FB7FBF3F7DFF832
:101C400070C0ACF1040CDCF800C0CCF3881C07FBBE
:101C50000CF4174F3F1F3F68C7F301477F1C7D00FF
:101C6000B4FBF5F7076002E0124F076000BF00BF4A
:101C70000F4F3F6807F0F0010909104F7A5C0768C1
:101C8000D74047600A4F3F6807F4E051890A0B4F7D
:101C90007A5C4768D7408760054F3F6807F460412A
:101CA000490B064F7A5C4768D740C760F0BD00001B
:101CB000083802400024F400001BB7001400002084
:101CC00070B590B004460E46154601214A48FFF70C
:101CD00033FF01211020FFF75FFF01211020FFF7E4
:101CE0006BFF00211020FFF767FF072211464348D2
:101CF000FFF73CFD80200E9002208DF83C00002074
:101D00008DF83E0003208DF83D0000208DF83F0047
:101D10000EA93A48FFF7E2FC394800F0A5FD394822
:101D20000A900020ADF82C00ADF82E004FF4806032
:101D3000ADF830000420ADF832000020ADF83400DA
:101D40000AA92F4800F058FE012240212C4800F03B
:101D500082FD10212A4800F069FD012240F2244151
:101D6000274800F023FE0121254800F068FD2520CA
:101D70008DF83C0004208DF83D0000208DF83E00D9
:101D800001208DF83F000FA8FFF768FD1E48FFF700
:101D9000C3FA4FF0006001901948001D02900394AF
:101DA00000200490059506904FF480600790002075
:101DB000089009904FF480700A904FF440300B90D7
:101DC00000200C900D900E900F9001A90E48FFF787
:101DD000A1FB002231460C48FFF755FB01210A48C0
:101DE000FFF746FB00210848FFF78AFA0121064861
:101DF000FFF786FA10B070BD0200400000040240F8
:101E000000100140A08601004064024010B500218E
:101E1000014800F014FD10BD0010014000B101B9EF
:101E200070470278437842EA0322C2F30A020A802A
:101E30004278D210837842EA4312C2F30A024A80FF
:101E400082789211C37842EA8302037942EA8322BC
:101E5000C2F30A028A8002795210437942EAC3121D
:101E6000C2F30A02CA804279C2F301128A7242792D
:101E700012119308CB728279C37942EA032212B21B
:101E80008A81027A437A42EA032213B201F10C02F8
:101E9000CB81827AC37A42EA032213B201F10C02A7
:101EA0000B82037B8B74437BCB74827BC37B42EAC4
:101EB00003228A82027C437C42EA032212B20A8114
:101EC0000A88A2F5806212B20A804A88A2F580626E
:101ED00012B24A808A88A2F5806212B28A80CA88C9
:101EE000A2F5806212B2CA800A89A2F5806212B29B
:101EF0000A8100BF94E7000010B50446002118488D
:101F0000FFF7FEF9002116481830FFF7F9F900BF76
:101F10001348FFF7C4FA0028FAD100BF1048183060
:101F2000FFF7BDFA0028F9D10E490D481830FFF728
:101F3000CDF90D490A48FFF7C9F921460848FFF7CE
:101F400015FB214606481830FFF710FB0121044815
:101F50001830FFF7D5F901210148FFF7D1F910BD7D
:101F600070640240000C0020300000200CB50020FE
:101F7000019000904148006840F480303F4908607B
:101F800000BF3E48006800F4003000900198401CFB
:101F90000190009818B90198B0F5A04FF1D13748D9
:101FA000006800F4003010B10120009001E0002032
:101FB00000900098012860D130484030006840F01F
:101FC00080502E49403108602D48006840F4404060
:101FD0002B49086029480830006828490831086002
:101FE0000846006840F4004008600846006840F475
:101FF000A05008602348091F0860081F006840F0CF
:102000008070091F086000BF1C48006800F0007065
:102010000028F9D01A48006840F480301849086058
:1020200000BF1748406800F480300028F9D01448F9
:10203000006840F400301249086000BF1048406852
:1020400000F400300028F9D040F205700E49086015
:102050000A480830006820F0030008490831086089
:102060000846006840F00200086000BF03480830DE
:10207000006800F00C000828F8D10CBD00380240C0
:1020800000700040062D4008003C0240042808D1A2
:102090004FF0E021096941F004014FF0E0221161A5
:1020A00007E04FF0E021096921F004014FF0E02240
:1020B0001161704710B503F083FB012801D003F0D4
:1020C0002DF810BD10B51548006840F47000134994
:1020D00008601348006840F00100114908600020C2
:1020E0000F49083108600E4800680E4908400C4945
:1020F00008600D48091D0860081F006820F4802052
:10210000091F0860002006490C310860FFF72EFF08
:102110004FF0006001498039086010BD88ED00E093
:1021200000380240FFFFF6FE1030002410B50121F8
:10213000084800F053F960B10121064800F068F842
:10214000054802684068521C40F1000002490A60DC
:10215000486010BD00040040F800002010B50121C7
:10216000064800F03BF938B10121044800F050F86E
:102170000021024800F04FF810BD000000100040A0
:102180007FB505460C4601211020FFF7E5FC012133
:102190001020FFF7F1FC00211020FFF7EDFC15489F
:1021A00000F054F8681E0290601E80B2ADF8040082
:1021B0000020ADF80600ADF80C0001A90D4800F0B4
:1021C0007BFA012211460B4800F019F936208DF8F0
:1021D000000004208DF8010000208DF8020001208D
:1021E0008DF803006846FFF739FB0121014800F034
:1021F00012F87FBD0010004021B1028842F0800239
:10220000028004E002884FF67F731A400280704714
:10221000CA430282704721B1028842F00102028063
:1022200004E002884FF6FE731A400280704731B115
:10223000B0F8442042F40042A0F8442005E0B0F891
:102240004420C2F30E02A0F84420704710B50446A3
:102250005548844208D101210846FFF7ADFC002112
:102260000120FFF7A9FC9DE0B4F1804F08D10121C6
:102270000846FFF781FC00210120FFF77DFC91E07B
:102280004A48844208D101210220FFF775FC002151
:102290000220FFF771FC85E04548844208D1012106
:1022A0000420FFF769FC00210420FFF765FC79E0BA
:1022B0004048844208D101210820FFF75DFC00213D
:1022C0000820FFF759FC6DE03B48844208D101210A
:1022D0001020FFF751FC00211020FFF74DFC61E0BA
:1022E0003648844208D101212020FFF745FC002117
:1022F0002020FFF741FC55E03148844208D10121FC
:102300000220FFF759FC00210220FFF755FC49E0AD
:102310002C48844209D101210804FFF74DFC00211B
:102320004FF48030FFF748FC3CE02748844209D155
:1023300001214804FFF740FC00214FF40030FFF773
:102340003BFC2FE02148844209D101218804FFF79A
:1023500033FC00214FF48020FFF72EFC22E01C48C4
:10236000844208D101214020FFF706FC00214020D3
:10237000FFF702FC16E01748844208D101218020B3
:10238000FFF7FAFB00218020FFF7F6FB0AE0124876
:10239000844207D101218015FFF7EEFB0021A01533
:1023A000FFF7EAFB10BD0000000001400004004000
:1023B00000080040000C00400010004000140040E5
:1023C0000004014000400140004401400048014039
:1023D00000180040001C00400020004030B50246BC
:1023E000002000230024158A05EA0103958905EAE7
:1023F000010413B10CB1012000E0002030BD1AB17E
:1024000083890B43838102E083898B4383817047F7
:1024100070B5002400220023058C4FF6FE7635406F
:102420000584028C8388048B4FF68F752C40B51E73
:102430002C400D882C43751E2A408D892A434D88D7
:102440002A43104DA84202D00F4DA84213D14FF697
:10245000F7752A40CD892A434FF6FB752A408D88AF
:102460002A434FF6FF652B404FF6FF552B400D8A50
:102470002B434D8A2B43838004838D6845630284FC
:1024800070BD000000000140000401400A46002128
:10249000018B4FF6F7731940114301837047000019
:1024A00070B5002400220023058C4FF6EF763540EE
:1024B0000584028C8388048B48F6FF752C404FF608
:1024C000FF452C400D884FF6FF7606EA05252C4384
:1024D0004FF6DF752A408D8906EA05152A434D8897
:1024E00006EA05152A43154DA84202D0144DA8420C
:1024F0001DD14FF67F752A40CD894FF6FF7606EA4B
:1025000005152A434FF6BF752A408D8806EA051542
:102510002A434FF6FF352B404FF2FF752B400D8AB3
:1025200006EA85052B434D8A06EA85052B43838001
:1025300004838D688563028470BD00000000014043
:10254000000401400A460021018B4FF2FF7319403D
:102550004FF6FF7303EA022319430183704700001B
:1025600070B5002400220023058C4FF6FF6635402D
:102570000584028C8388848B4FF68F752C404FF630
:10258000FC752C400D882C434FF6FF552A408D8951
:102590004FF6FF7606EA05252A434D8806EA05250B
:1025A0002A43154DA84202D0144DA8421DD14FF226
:1025B000FF752A40CD894FF6FF7606EA05252A43A6
:1025C0004FF6FF352A408D8806EA05252A434EF648
:1025D000FF752B404DF6FF752B400D8A06EA051559
:1025E0002B434D8A06EA05152B43838084838D682F
:1025F000C563028470BD000000000140000401407A
:102600000A460021818B4FF6F773194011438183ED
:102610007047000070B5002200230024058C4EF6A0
:10262000FF7635400584038C8488828B48F6FF75DD
:102630002A404FF6FF452A400D884FF6FF7606EAFE
:1026400005252A434DF6FF752B408D8906EA053591
:102650002B434D8806EA05352B430A4DA84202D08C
:10266000094DA84208D14BF6FF752C400D8A4FF654
:10267000FF7606EA85152C43848082838D68056485
:10268000038470BD00000140000401400A4600219F
:10269000818B4FF2FF7319404FF6FF7303EA022359
:1026A0001943818370474163704781637047C163F9
:1026B000704701647047000000220288184B98425E
:1026C0000ED0184B98420BD0B0F1804F08D0164B6B
:1026D000984205D0154B984202D0154B984204D130
:1026E0004FF68F731A404B881A43124B984207D00B
:1026F000114B984204D04FF6FF431A400B891A43FE
:1027000002804B68C3620B880385054B984202D058
:10271000044B984201D18B7A038601238382704750
:102720000000014000040140000400400008004097
:10273000000C0040001000400014004010B540F2B2
:102740002551344800F008F918B1324800F0BEF9BC
:102750005FE040F224412F4800F0FEF8002858D0F6
:102760002C4800F0B3F92C48FEF7A7FE40BB00212F
:102770002948FEF7C5FD2848FEF79BFEC0F124005E
:102780002649088024212448FEF7F0FE22480068EC
:1027900040F400202049086021491F48FEF796FDBB
:1027A00001211D48FEF7ACFD1C480088122830D1DD
:1027B0001C491D48FFF732FB0020FEF7DBFE28E036
:1027C00000211548FEF79CFD1348FEF772FEC0F18C
:1027D00024001249088024210F48FEF7C7FE0E4846
:1027E000006820F400200C4908600D490A48FEF7F3
:1027F0006DFD01210848FEF783FD08480088122876
:1028000007D1084908482430FFF708FB0020FEF7ED
:10281000B1FE10BD00100140406402408001002064
:1028200000003010280B02203E0B022001F4007241
:10283000B2F5007F00D100BFCA430280704721B1CA
:10284000828942F40052828104E082894DF6FF734E
:102850001A40828170471AB1838A0B43838202E057
:10286000838A8B438382704710B504463248844282
:1028700008D101211020FFF79FF900211020FFF758
:102880009BF957E02D48844209D101214804FFF704
:1028900073F900214FF40030FFF76EF94AE0284841
:1028A000844209D101218804FFF766F900214FF421
:1028B0008020FFF761F93DE02248844209D10121DF
:1028C000C804FFF759F900214FF40020FFF754F92D
:1028D00030E01D48844209D101210805FFF74CF979
:1028E00000214FF48010FFF747F923E01748844296
:1028F00008D101212020FFF75FF900212020FFF7F8
:102900005BF917E01248844209D101218807FFF7DB
:1029100033F900214FF08040FFF72EF90AE00D480F
:10292000844207D101214005FFF726F90021600507
:10293000FFF722F910BD00000010014000440040E4
:1029400000480040004C004000500040001401408E
:1029500000780040007C004070B50246002400234F
:102960000025002040F66A16B14200D100BFC1F335
:10297000421501F01F03012606FA03F3012D02D1CF
:102980009689334006E0022D02D1168A334001E0D9
:10299000968A33400C12012606FA04F41688344055
:1029A00013B10CB1012000E0002070BDF0B503466A
:1029B000002400260025002040F66A17B94200D105
:1029C00000BF1846C1F3421401F01F06012707FAA1
:1029D00006F5012C01D10C3004E0022C01D110309D
:1029E00000E014301AB107682F43076002E007685F
:1029F000AF430760F0BD00002DE9FF4705460E46D6
:102A00000024A14600BFA046B08900B100BF2C8AB7
:102A100024F44054F08804432C82AC8941F20C60C9
:102A20008443B08831890843718908430443AC81E9
:102A3000AC8A24F44074B0890443AC826846FFF742
:102A4000CBF82048854202D01F48854202D1DDF8EC
:102A50000C9001E0DDF80890A88900F4004040B136
:102A600009EBC90000EB091031684900B0FBF1F730
:102A700007E009EBC90000EB091031688900B0FBE1
:102A8000F1F76420B7FBF0F004012009642101FB99
:102A90001078A88900F4004040B1322000EBC80053
:102AA000B0FBF1F000F00700044308E0322000EB37
:102AB00008106421B0FBF1F000F00F0004432C81FA
:102AC000BDE8FF87001001400014014001468888DE
:102AD000C0F30800704700BFFEE7000000B58BB0F0
:102AE00001210846FFF728F801210846FFF734F8CE
:102AF000012200214B48FEF739FE012211464948C8
:102B0000FEF734FE012202214648FEF72FFE012285
:102B100003214448FEF72AFE0F20099002208DF879
:102B2000280000208DF829008DF82A008DF82B0050
:102B300009A93C48FEF7D2FD01210846FFF71CF821
:102B400000210120FFF718F840F2CF700790B32062
:102B5000ADF818000020ADF81A00ADF8200006A965
:102B60004FF08040FFF7A8FD6020ADF80400012081
:102B7000ADF806000020ADF81000ADF80800082000
:102B8000ADF812004001ADF814000020ADF81600B9
:102B900040F6B830039001A94FF08040FFF738FCB1
:102BA00001A94FF08040FFF77BFC01A94FF0804066
:102BB000FFF7D6FC01A94FF08040FFF72BFD08215D
:102BC000C806FFF763FC0821C806FFF7BBFC082115
:102BD000C806FFF715FD0821C806FFF757FD0121BC
:102BE0008807FFF709FB01218807FFF720FB012178
:102BF0008807FFF710FB00214FF08040FFF753FDDF
:102C000000214FF08040FFF750FD00214FF0804041
:102C1000FFF74DFD00214FF08040FFF74AFD0BB05C
:102C200000BD00000000024010B5044604B910BD0C
:102C300000F0E2FD606000202073607300F024FE6D
:102C40002060DFED0B0A9FED0B0A0B4A002104F117
:102C50001000FEF741FFDFED060A9FED080A084A63
:102C6000002104F15800FEF737FF00BFDFE7000046
:102C70000000FA4400409C457C5C00080080BB4595
:102C8000885C000840F2651001F040FF9E48FFF7A5
:102C9000CBFF37E19C4800F0CFFE9B48007B00282B
:102CA00046D199480068808A00F4007000287DD0E1
:102CB000954840680069954988423ADC92484068E6
:102CC000D0ED040AF8EEE00AB0EE600ADFED900AFB
:102CD0008D481030FEF708FEBDEEC00A10EE100A57
:102CE00001B289480181B0F9080001EE100AB8EE7E
:102CF000C11AF0EE410A84484068B0F9020001EEC2
:102D0000100AB8EEC11AB0EE410A7F485830FEF7FB
:102D1000EBFDBDEEC00A10EE100A01B27A48418107
:102D20000146B1F90A0000231A461946FDF790FE44
:102D3000E0E0754840680069764988423CDB7248AB
:102D40004068D0ED040AF8EEE00AB0EE600ADFED6C
:102D5000700A6D481030FEF7C7FDBDEEC00A10EED8
:102D6000100A01B268480181B0F9080001EE100AAA
:102D7000B8EEC11AF0EE410A63484068B0F90200AB
:102D800001EE100AB8EEC11AB0EE410A5E485830A2
:102D9000FEF7AAFDBDEEC00A10EE100A01B25A48B5
:102DA00041810146B1F90A00002300E00BE01A4618
:102DB0001946FDF74DFE9DE000231A4619461846B8
:102DC000FDF746FE96E050480068808A00F4806077
:102DD00000287DD04C484068006900283ADB4A480A
:102DE0004068D0ED040AF8EEE00AB0EE600ADFEDCC
:102DF0004A0A45481030FEF777FDBDEEC00A10EED6
:102E0000100A01B240480181B0F9080001EE100A31
:102E1000B8EEC11AF0EE410A3B484068B0F9020032
:102E200001EE100AB8EEC11AB0EE410A3648583029
:102E3000FEF75AFDBDEEC00A10EE100A01B232488C
:102E400041810146B1F90A0000231A461946FDF7EF
:102E5000FFFD4FE02C4840680069304988423CDC67
:102E600029484068D0ED040AF8EEE00AB0EE600AA6
:102E7000DFED290A24481030FEF736FDBDEEC00A0A
:102E800010EE100A01B220480181B0F9080001EEED
:102E9000100AB8EEC11AF0EE410A1B484068B0F9BA
:102EA000020001EE100AB8EEC11AB0EE410A16484F
:102EB0005830FEF719FDBDEEC00A10EE100A01B23F
:102EC000114841810146B1F90A0000231A4600E089
:102ED0000AE01946FDF7BCFD0CE000231A4619462E
:102EE0001846FDF7B5FD05E000231A4619461846B9
:102EF000FDF7AEFD022001F009FE002001F0B0FC5C
:102F000007490860C6E60000880B022098300100DF
:102F1000004C9847AB35010000000000EDFAFFFFC0
:102F2000A801002030B58BB005460C460121402099
:102F3000FEF712FE01218020FEF7FEFD0121402058
:102F4000FEF71AFE00214020FEF716FE0922062198
:102F50002048FEF70BFC4020099002208DF8280045
:102F600003208DF8290000208DF82A0002208DF81A
:102F70002B0009A91748FEF7B1FB6020ADF804004B
:102F80000120ADF806000020ADF8100001A912489C
:102F9000FFF73EFA08211048FFF778FA01210E48A2
:102FA000FFF72AF9681E0790601E80B2ADF818007E
:102FB0000020ADF81A00ADF8200006A90648FFF77A
:102FC0007BFB01210448FFF726F900F007F80BB05E
:102FD00030BD0000001C02400018004010B5002168
:102FE0000148FFF760FB10BD0018004070B50446B3
:102FF0000D4604480480294602482838FFF753FB51
:1030000070BD0000281800402DE9F05F0546884695
:1030100091469A46DDF828B07DB1B8F1000F0CD08A
:10302000B9F1000F09D0BAF1000F06D0BBF1000FC3
:1030300003D00B9808B10C9808B9BDE8F09F0026A2
:1030400000270024288A698A401A04B2002C03DA77
:1030500041F6FF70204404B2204604EBD0712A8A66
:10306000A2EB61010CB2B4F5005F04DBA4F5F850EB
:10307000FF3804B205E0002C03DA41F6FF7020446B
:1030800004B2A8F80040B8F80010288A00F0F0FC5C
:103090008AED000AB8F80010688A00F0E9FC8BEDB0
:1030A000000A95ED020ADFED370A80EE201ABDEE28
:1030B000C10A10EE100A04B2A88A001B06B295EDF0
:1030C000030ADFED300A80EE201ABDEEC10A10EED1
:1030D000100A04B2E88A001B07B2B6F5005F04DBF1
:1030E000A6F5F850FF3806B205E0002E03DA41F6E7
:1030F000FF70304406B2B7F5005F04DBA7F5F85067
:10310000FF3807B205E0002F03DA41F6FF703844BC
:1031100007B2F01B04B2B4F5805F04DDA4F5F850EB
:10312000FF3804B206E014F5805F03DA41F6FF7061
:10313000204404B2204604EBD071A6EB61010CB22E
:10314000B4F5005F04DBA4F5F850FF3804B205E0E5
:10315000002C03DA41F6FF70204404B2A9F80040C5
:10316000B9F80010A88A00F083FC0B9880ED000AE3
:10317000B9F80010E88A00F07BFC0C9880ED000A9A
:1031800000BF5AE7DB0F493AF8B50024002500BF1D
:1031900069E0364968180122694600F045FA9DF851
:1031A000000004EB840101EBC401314A50549DF846
:1031B000010004EB840101EBC401114448709DF847
:1031C000020004EB840101EBC401114488709DF8F6
:1031D000030004EB840101EBC4011144C870281DF5
:1031E00085B204EB840303EBC403164633441B7916
:1031F00003F07F0204EB840303EBC4033344D3F8EE
:1032000005101A4BE81800F00FFA04EB840000EBED
:10321000C40031460844007900F07F0005EB8000CF
:1032200085B204EB840000EBC4000844C078552844
:1032300017D004EB840000EBC4000844D0F8090068
:1032400078B104EB840000EBC4000844007920F05E
:103250008000803004EB840101EBC401324611444C
:103260000871601CC4B2052C93DBF8BD00001E0879
:10327000540502207CB506460D463446ADB994EDA2
:10328000042AF0EE421A94ED032AB0EE421A94EDAD
:10329000022AF0EE420A94ED012AB0EE420A618859
:1032A000208801F043FA00207CBD012D16D104F1E5
:1032B0001000011F0B1F221DCDE90010A11C20468C
:1032C00000F0C2F818B1FFF789FE0120ECE744F6E0
:1032D00020611F20FFF78AFE0020E5E70020E3E7DA
:1032E00070B506460C46354634B9294605F10C0042
:1032F000FEF7A0FA002070BD012C1BD10E4A294612
:1033000005F10C00FEF75CFA0B48008844F62061DA
:10331000884206DD002008490880FFF75FFE012093
:10332000E9E7FEF773FD42F210715F20FFF75EFEE2
:103330000020E0E70020DEE7F200002070B505463F
:103340000C460CB9012070BD00200F49087000F038
:103350009FFABDEEC00A10EE100A0A3040B20A49C8
:103360004870084690F901002D2801DD2D20487095
:1033700043F23900044948809FED040A10EE100A18
:1033800048600120DFE70000A8000020DF8FB44183
:1033900010B5002400BF26E02748015D04EB84003F
:1033A00000EBC400254A1044007961F3060004EBE9
:1033B000840101EBC40111440871214850F8240034
:1033C00004EB840101EBC4011144C1F805001D4860
:1033D00050F8240004EB840101EBC4011144C1F84E
:1033E0000900601CC4B2052CD6DBFFF7CDFE00241B
:1033F0001FE004EB840000EBC40010490844C078CF
:10340000552814D104EB840000EBC4000844D0F824
:10341000090060B10A4951F8240004EB840101EB72
:10342000C401064B1944D1F8092000219047601CC3
:10343000C4B2052CDDDB10BDC40000205405022001
:10344000B0000020CC0000202DE9FE4304460D46CC
:1034500016461F46DDE90A892E4890F8E40180BB34
:1034600001212C4880F8E41190ED6B0A80ED750A7B
:10347000D0F8EC00008881B22648A0F8E01190ED69
:10348000330A80ED730AC068008881B22148A0F831
:10349000DC1190ED6B0A80ED760AD0F8EC00008824
:1034A00081B21C48A0F8E21190ED330A80ED740A55
:1034B000C068008881B21748A0F8DE110020BDE87E
:1034C000FE83FFE7134890F8E401052820D1334636
:1034D0002A46214610488DE88003FFF795FD218894
:1034E0000C48A0F8BA1096ED000A80ED2F0A97ED6F
:1034F000000A80ED300A2988A0F89A1198ED000A98
:1035000080ED670A99ED000A80ED680A0120D6E790
:103510000020D4E71C080220E809022070B5044608
:103520000025681FFEF7B2FD134800681349B0FB81
:10353000F1F013490870104800684FF4FA51B0FBDD
:10354000F1F0104908600CB94FF47A740A48006829
:10355000B0FBF4F0C5086D1E4FF0E020006940F0AC
:1035600002004FF0E021086108464561006940F023
:103570000100086170BD00000000002000127A0008
:10358000980000209C00002070B503460024002114
:103590000020002200254FF0E02675690D4E3668A8
:1035A00003FB06F44FF0E026B16910E04FF0E0268F
:1035B000B06988420BD0884202D20E1A324402E02F
:1035C0002E1A0E4432440146A24200D300E0EDE739
:1035D00000BF70BD9C00002070B503460024002190
:1035E0000020002200254FF0E02675690D4E367848
:1035F00003FB06F44FF0E026B16910E04FF0E0263F
:10360000B06988420BD0884202D20E1A324402E0DE
:103610002E1A0E4432440146A24200D300E0EDE7E8
:1036200000BF70BD9800002038B500230024044678
:1036300000BF06E025680095009D0D60241D091D52
:103640005B1C9342F6D338BD10B504464FF480702E
:1036500040FA04F10148FEF7AEF810BD0018024030
:1036600000B58BB001210846FEF766FA0121102053
:10367000FEF762FA01210846FEF78EFA01220821C0
:103680004448FEF773F801220E214348FEF76EF816
:103690004FF48070099002208DF8280000208DF8EA
:1036A00029008DF82A008DF82B0009A93948FEF76A
:1036B00015F84FF48040099009A93748FEF70EF835
:1036C00001210846FEF778FA00210120FEF774FA7E
:1036D00040F2CF700790B320ADF818000020ADF88D
:1036E0001A00ADF8200006A92C48FEF7E5FF60207F
:1036F000ADF804000120ADF806000020ADF8100080
:10370000ADF808000820ADF812004001ADF8140033
:103710000020ADF816004FF47A70039001A91F48FD
:10372000FEF776FE01A91D48FEF774FF08211B482D
:10373000FEF7ACFE08211948FEF7A8FF0121174843
:10374000FEF75AFD01211548FEF771FD01211348CE
:10375000FEF761FD00F026F801212020FEF7ECF9CC
:103760004FF48060099000208DF828008DF82A0021
:1037700003208DF8290001208DF82B0009A90848A5
:10378000FDF7ACFF4FF480610548FEF714F80BB06D
:1037900000BD000000000240001002400000014097
:1037A0000014024010B54FF47A710448FEF77BFF15
:1037B0004FF47A710148FEF77CFF10BD0000014014
:1037C00010B5044632210B48FCF7E7FE01231A46E8
:1037D00021460848FCF740FF0648FCF799FF00BF68
:1037E00002210448FCF704FF0028F9D00148FCF747
:1037F000FBFE10BD00200140004870475C0602201F
:10380000028802810A7BCB7A42EA032212B202804A
:103810008B7B4A7B43EA022212B242800B7CCA7B3A
:1038200043EA022212B282804A7C8271B0F90020FF
:10383000B0F90830D21A41F270739A4203DDC268BF
:10384000521EC2600AE0B0F90020B0F90830D21A66
:10385000074B9A4202DAC268521CC260B0F90030CB
:10386000C26803EB4232838AD21A026170470000B9
:1038700090E8FFFF0A7BCB7A42EA032212B2028071
:10388000028882827047000000487047280B02209F
:1038900010B52DED028B002008EE900A00F08CFF91
:1038A0001220FFF78DFF08EE900AB8EE680ADFEDF0
:1038B0000C0A20EE200AB0EE408A9FED0A0A38EE8C
:1038C000400ADFED090A80EE201AB3EE090A31EE54
:1038D000000AB0EE408AB0EE480ABDEC028B10BD83
:1038E0003333533A5C8F423F0AD7233B10B508B1BC
:1038F00001B103B910BD02F0020414B100241C8010
:10390000F8E702F0010404B390ED000AD1ED000ADB
:103910009FED0F1A01EE600A80ED000A90ED010A9A
:10392000D1ED010A9FED0A1A01EE600A80ED010A4D
:1039300090ED020AD1ED020A9FED051A01EE600A30
:1039400080ED020A1C88641C1C8000BFD2E70000C6
:1039500052499D391CB501214020FEF7EDF84FF486
:103960000050009001208DF8040000208DF8060022
:1039700003208DF8050001208DF8070069460348F3
:10398000FDF7ACFE00F004F81CBD0000001802407A
:1039900010B54FF400510248FDF70DFF10BD0000B7
:1039A000001802401CB501217020FEF7C5F84FF445
:1039B0008040009001208DF8040000208DF8060062
:1039C00003208DF8050001208DF8070069460D4899
:1039D000FDF784FE4FF40060009069460A48FDF749
:1039E0007DFE00F015F800F01DF84FF4FF70009018
:1039F00069460648FDF772FE4FF4FF70FFF724FE9C
:103A00001CBD0000001402400010024000180240DB
:103A100010B54FF480410248FDF7CDFE10BD000007
:103A20000014024010B54FF400610248FDF7C3FED8
:103A300010BD0000001002400168097D01F0200166
:103A400011B10021017306E00168097D01F0100148
:103A500009B1012101737047FCF776FE6420FFF77E
:103A600093FD00F073FE01F023FA00BFFEE70000B3
:103A70000246501AB0F5805F03DDA0F5F850FF381C
:103A800005E010F5805F02DA41F6FF73184400EE9E
:103A9000100AB8EEC00ADFED020A20EE200A7047D5
:103AA000DB0F493A10B540210148FDF784FE10BDF7
:103AB0000014024010B540210148FDF77AFE10BD08
:103AC000001402401CB501218020FEF735F83C208F
:103AD000009001208DF8040000208DF806000320DE
:103AE0008DF8050001208DF8070069460648FDF7AE
:103AF000F5FD002404E0204600F008F8601CC4B284
:103B0000042CF8DB1CBD0000001C024010B504466C
:103B1000032C00DD10BD0420A04081B20248FDF757
:103B200048FE00BFF6E70000001C024010B5044646
:103B3000032C00DD10BD0420A04081B20248FDF737
:103B40003AFE00BFF6E70000001C02402DE9F041FC
:103B500005460E461C4807681C480068001D00F01A
:103B60006BFE50B91948006890F82C10012088406D
:103B700017490968814316480160681C38B936B195
:103B800012480168091D134800F0A8FE1AE07C19CC
:103B90000E4800684460BC4207D20C480168091D09
:103BA0000D48006800F080FE0CE008480168091D1F
:103BB0000A48006800F078FE09480068844201D293
:103BC00007480460BDE8F081380000202400002090
:103BD0003C000020BC0400202C0000202800002015
:103BE0005400002010B5044600F084FE244800680C
:103BF000401C234908602348006840B921480460FC
:103C00000846006801280DD100F0E0F90AE01E48DE
:103C1000006838B91B480068C06AE16A884201D868
:103C20001848046019480068401C18490860084694
:103C30000068606494F82C100120884014490968D9
:103C4000084313490860E16A01EB8101114A02EB64
:103C50008100211D00F042FE00F076FE0A48006857
:103C600068B108480068C06AE16A884207D24FF02C
:103C7000805009490860BFF34F8FBFF36F8F10BDAD
:103C800034000020240000204000002050000020CC
:103C90003C000020EC01002004ED00E010B500F035
:103CA00029FE10480068D0B90F4800F0EDFD0F481C
:103CB00000F0EAFD0C480E4908600C480D49086008
:103CC00000220C210A2001F043FA06490860084648
:103CD000006820B108A10348006800F0DBFE00F096
:103CE00033FE10BD68000020D0040020E404002052
:103CF0006000002064000020546D7251000000003C
:103D000070B523E001F01EF91348006808B90120DE
:103D100000E00020054601F0BDFEBDB900F0EAFD5F
:103D20000D48C068C468201D00F086FD0B4800687F
:103D3000401E0A4908600A480068401E0849086099
:103D400000F002FE204600F060F800BF0448006862
:103D50000028D7D170BD0000A80400203400002046
:103D60003000002070B504460D46206C70B1216C07
:103D7000E0680844E0606168E068884201D3206838
:103D8000E0602846226CE168FCF702FB70BD2DE97B
:103D9000F04104460F4615464FF00008A66B206C14
:103DA00040B9206860BB606801F0C4FD8046002017
:103DB000606025E07DB93946226CA068FCF7E8FA1E
:103DC000216CA0680844A060D4E90110884217D390
:103DD0002068A06014E03946226CE068FCF7D8FA4D
:103DE000216CE068401AE0602168E068884203D2F4
:103DF000216C6068401AE060022D01D106B1761E88
:103E0000701CA0634046BDE8F08110B50446206BED
:103E100000F0B8FD204600F0B5FD10BD0146084A8F
:103E2000126812680AB9012200E000220A600A68DA
:103E300022B9034A1268D268106800E00020704777
:103E40006000002030B54FF40033174800F007043D
:103E50002CB1C01D20F00700134C041B1B1B024695
:103E6000124C22600024114D6C60D018083820F0EC
:103E700007000F4C206000240D4D2D686C600C4D28
:103E80002D682C601146441A4C60094C24680C6063
:103E9000084D4C682C60084D4C682C604FF0004475
:103EA000064D2C6030BD0000F80400207400002096
:103EB0007C0000208400002080000020880000207A
:103EC00000BFFFF71DFF064800680128F9D94FF031
:103ED000805004490860BFF34F8FBFF36F8FF0E746
:103EE000EC01002004ED00E02DE9F04106460D460E
:103EF00017469846069C0DB9246000E02760E663EB
:103F000025640121204601F031FA84F85080002018
:103F1000A064BDE8F0812DE9F05F82460F4690462F
:103F20009B460A9E0C9C4FEA8801A522206BFCF759
:103F3000A6FAA8F10100216B01EB800929F007091D
:103F400009F0070008B9012000E0002050B900BFC7
:103F5000502080F31188BFF34F8FBFF36F8F00BFE6
:103F600000BFFEE7002507E0795D04F1340041550C
:103F7000785D00B902E06D1C102DF5D300BF002163
:103F800043200155202E00D31F26E662E664002060
:103F90002065201D00F085FC04F1180000F081FC74
:103FA0002461C6F12000A06164620020606584F88D
:103FB00058005A465146484600F098FB20600B983E
:103FC00008B10B980460BDE8F09F000010B5002414
:103FD00007E004EB84010F4A02EB810000F054FC7F
:103FE000641C202CF5D30C4800F04EFC0B4800F06C
:103FF0004BFC0B4800F048FC0A4800F045FC0A481E
:1040000000F042FC04480949086004480849086077
:1040100010BD0000EC0100206C0400208004002092
:1040200094040020A8040020BC04002028000020E4
:104030002C00002010B50146164800E00068036817
:104040008B42FBD30246436813448B4204D143683E
:104050004C682344436001460A464B681344046895
:10406000A34211D10C4C03682468A34208D04B68CA
:104070000468646823444B6003681B680B6005E0B8
:10408000054B1B680B6001E003680B60884200D0A1
:10409000016010BD740000207C0000202DE9F0417B
:1040A00004460D4616461F464FF000086560246121
:1040B000B5420CD8F01BA169884202D34FF0010829
:1040C00011E0211D0948006800F0EEFB0BE0BE4244
:1040D00004D2BD4202D34FF0010804E0211D044880
:1040E000006800F0E1FB4046BDE8F081640000207C
:1040F0006000002070B5054600F0FCFBA86B08B915
:10410000012400E0002400F01FFC204670BD70B5C3
:10411000054600F0EFFBA86BE96B884201D1012452
:1041200000E0002400F010FC204670BD2DE9F341B2
:104130000D460098846C002754B900BF502080F3CE
:104140001188BFF34F8FBFF36F8F00BF00BFFEE733
:10415000A06BE16B884201D2012000E0002050B941
:1041600000BF502080F31188BFF34F8FBFF36F8FD4
:1041700000BF00BFFEE7A06BE16B88421BD294F941
:1041800045602A4669462046FFF701FE0746701C37
:1041900060B9606A08B9012000E0002050B904F15C
:1041A000240001F02BFC28B1012703E0701C40B271
:1041B00084F8450000BF3846BDE8FC81F8B50546E7
:1041C0000F4616480068C068C468201D00F034FB24
:1041D000E06901281DD1A06941192B463A462046C5
:1041E000FFF75CFFA8B1002003462A460146009075
:1041F000204601F0FBFC064656B900BF502080F374
:104200001188BFF34F8FBFF36F8F00BF00BFFEE772
:1042100000BF2046616A8847F8BD000060000020AA
:1042200070B586B06AE00398002867DB059C60697A
:1042300008B9012000E0002010B9201D00F0FCFAB0
:1042400002A800F0BDF8054603980A2854D2DFE81A
:1042500000F009050731334F0608323400BF00BFB4
:1042600000BF00BF0498A269811803462A46204671
:10427000FFF714FFE8B12046616A8847E06901282A
:1042800017D1002000900498A16942180023194614
:10429000204601F0ABFC064656B900BF502080F323
:1042A0001188BFF34F8FBFF36F8F00BF00BFFEE7D2
:1042B00000BF22E000BF20E000BF0498A061A06919
:1042C00008B1012000E0002050B900BF502080F369
:1042D0001188BFF34F8FBFF36F8F00BF00BFFEE7A2
:1042E000A06941192B462A462046FFF7D7FE04E075
:1042F000204600F047FB00E000BF00BF00231A4645
:1043000003A90448006800F04FFF00288BD106B0D5
:1043100070BD000068000020F8B505460C4600F0AE
:1043200011FE684600F04CF80646009820BB44B9E0
:10433000B54206D801F0AEFB31462846FFF73EFFF6
:104340001CE03CB10E480068006808B9012000E09C
:1043500000200446A91B22460A48006800F0B0FB72
:1043600001F098FB50B94FF0805007490860BFF347
:104370004F8FBFF36F8F01E001F08CFBF8BD0000A1
:10438000640000206800002004ED00E00A4909688C
:10439000096809B9012100E0002121B14FF0FF3186
:1043A000064A116006E004490968C968C868034AFA
:1043B0004168116070470000280000205400002070
:1043C00070B5044601F00CFA0546074800688542BE
:1043D00004D200F00BF80120206001E000202060F2
:1043E00001480560284670BD700000202DE9F843A3
:1043F00032E024480068C068056822480068C06848
:10440000C468201D00F018FA2046616A8847E069F8
:10441000012821D1A0694619AE4207D966602461FE
:10442000211D1848006800F03FFA15E000200346FF
:104430002A4601460090204601F0D8FB074657B9AE
:1044400000BF502080F31188BFF34F8FBFF36F8FF1
:1044500000BF00BFFEE700BF0A480068006808B957
:10446000012000E000200028C3D00648D0F80080DA
:1044700005480068034908600348C0F80080BDE8AB
:10448000F883000060000020640000200246002144
:1044900001E0521C491C1078A528FAD0890888B27E
:1044A000704700000E480068401C08B9012000E079
:1044B000002050B900BF502080F31188BFF34F8F08
:1044C000BFF36F8F00BF00BFFEE700BF502080F337
:1044D0001188BFF34F8FBFF36F8F00BF00BFFEE7A0
:1044E0008C00002008B500BF6846FFF797FC044623
:1044F00020460099FFF710FFFFF792FEF4E770B532
:10450000044600F0F7F994F945501AE0A06C38B170
:1045100000212046FFF70AFE88B100F09FFB0EE065
:10452000606A08B9012000E0002038B904F12400D5
:1045300001F064FA18B100F091FB00E003E0681E9E
:1045400045B2002DE2DC00BFFF2084F8450000F0FA
:10455000FBF900F0CFF994F9445010E0206908B954
:10456000012000E0002048B904F1100001F046FAF3
:1045700008B100F073FB681E45B200E001E0002DB9
:10458000ECDC00BFFF2084F8440000F0DDF970BDD2
:104590002DE9F04104464FF0000800F0D3FC4648F6
:1045A000006808B9FFF74EFC444800682040002826
:1045B0006BD1D4B1083404F00700B0B104F00700A7
:1045C000C0F10800044404F0070008B9012000E02D
:1045D000002050B900BF502080F31188BFF34F8FE7
:1045E000BFF36F8F00BF00BFFEE7002C4DD03448F3
:1045F0000068844249D8334E3046056801E02E46B3
:104600002D686868A04202D228680028F7D12A489D
:104610000068854239D0306800F1080828683060A9
:104620006868001B102819D92F1907F0070008B96E
:10463000012000E0002050B900BF502080F3118815
:10464000BFF34F8FBFF36F8F00BF00BFFEE76868F7
:10465000001B78606C603846FFF7ECFC184968680E
:104660000968081A1649086008460068164909686A
:10467000884203D212480068134908600F496868ED
:104680000968084368600020286001F003FA08F018
:10469000070008B9012000E0002050B900BF5020F9
:1046A00080F31188BFF34F8FBFF36F8F00BF00BF40
:1046B000FEE74046BDE8F0817C0000208800002035
:1046C000800000207400002084000020064800685C
:1046D00030B10549096801F15000096D491C0160BC
:1046E000014800687047000024000020001F4FF0C0
:1046F00080730360001F21F001030360001F054B5E
:10470000036014380260001F6FF00203036020385A
:1047100070470000A544000810B524220249A1F109
:104720002400FDF7CDFA10BD620B0220064AA2F864
:10473000BA0082ED2F0AC2ED300AA2F89A1182ED7A
:10474000671AC2ED681A70471C0802201CB505489C
:10475000012100234A02CDE9001003A1054800F021
:10476000FFFF1CBD9401002073746172745F74615B
:10477000736B0000794700081CB5044600F0BAF8D6
:1047800008480A2100234FF40072CDE9001006A169
:10479000074800F0E5FF0748006800F0E5F900F081
:1047A000D3F81CBDA401002041726D5461736B00ED
:1047B000852C00089401002000B587B000200190EE
:1047C0008DF808008DF809000390059001208DF800
:1047D000180001A90248FBF715FF07B000BD000053
:1047E000002001401FB501210802FDF7D5F9012184
:1047F0000802FDF7E1F900214FF48070FDF7DCF9C4
:104800000120FBF78BFF00200090039002904FF4F3
:10481000803001906846FBF7CFFEFFF7CDFF012304
:104820001A4612210348FBF717FF01210148FBF745
:10483000B7FE1FBD0020014001460A69D1E90130E1
:104840009860D1E9010358605068884201D18868B6
:104850005060002008611068401E106010687047AA
:104860002DE9F041044614B90648006800E02046EE
:1048700007463D6B2846FFF709FE06463046BDE871
:10488000F08100002400002000F1080141604FF099
:10489000FF31816000F10801C16001610021016008
:1048A000704700210161704710B502460B685C1C1F
:1048B0000CB9106907E002F1080000E040684468A4
:1048C00024689C42FAD944684C604C68A1608860B6
:1048D00041600A611468641C146010BD42684A603B
:1048E00093688B60936859609160086103685B1CF2
:1048F0000360704700BF502080F31188BFF34F8FD3
:10490000BFF36F8F00BF0E480068401C0C49086061
:1049100008460068012812D10A480068C0B208B9E8
:10492000012000E0002050B900BF502080F3118822
:10493000BFF34F8FBFF36F8F00BF00BFFEE770471D
:104940008C00002004ED00E00D48006850B900BF65
:10495000502080F31188BFF34F8FBFF36F8F00BFDC
:1049600000BFFEE706480068401E0549086008468B
:10497000006820B9002080F3118800BF00BF704795
:104980008C00002070B506463546002E3FD0083D0D
:104990002C461F4960680968084008B1012000E002
:1049A000002050B900BF502080F31188BFF34F8F13
:1049B000BFF36F8F00BF00BFFEE7206808B901207A
:1049C00000E0002050B900BF502080F31188BFF3F1
:1049D0004F8FBFF36F8F00BF00BFFEE70C496068C9
:1049E0000968084098B1206888B909496068096871
:1049F0008843606000F0A6FA0649606809680844C8
:104A0000044908602046FFF715FB01F043F870BD2C
:104A100088000020800000207047000070B5FBF780
:104A20008DFC0446102C16D304F1E02090F8F053CE
:104A300015480078854201DB012000E0002050B9D4
:104A400000BF502080F31188BFF34F8FBFF36F8FEB
:104A500000BF00BFFEE70D48006800F4E0600C49AD
:104A60000968884201D8012000E0002050B900BF49
:104A7000502080F31188BFF34F8FBFF36F8F00BFBB
:104A800000BFFEE770BD0000900000200CED00E0CC
:104A900094000020024600200BE0084B53F8303011
:104AA00033B9064B43F8301003EBC0035A6002E001
:104AB000401C0828F1D300BF70470000AC01002063
:104AC0002DE9F04105460E4617462C46FFF712FF2A
:104AD00094F94400401C10B9002084F8440094F973
:104AE0004500401C10B9002084F84500FFF72CFF5A
:104AF000A06B28B93A46314604F1240000F048F989
:104B00002046FFF7FCFCBDE8F081000070B50446CC
:104B10000025D4B11248006808B9012000E0002047
:104B200050B900BF502080F31188BFF34F8FBFF3FF
:104B30006F8F00BF00BFFEE700F004FA002120469F
:104B4000FFF704F800F0A6FF05463DB94FF080508E
:104B500004490860BFF34F8FBFF36F8F70BD000033
:104B60005C00002004ED00E070B50546FFF7C2FED2
:104B700015B93048006800E028460446201DFFF7BC
:104B80005BFE78B9E06A00EB80002B4951F8200009
:104B900040B994F82C1001208840284909688143C5
:104BA00026480160A06A18B104F11800FFF744FE1E
:104BB00023480068401C224908601E48006884425F
:104BC00009D1211D1F48FFF789FE1F480068401CBE
:104BD0001D49086009E01D480068401E1B49086027
:104BE0002046FFF712F9FFF7D1FBFFF7ADFE18489B
:104BF0000068E8B10F480068844219D11548006880
:104C000008B9012000E0002050B900BF502080F317
:104C10001188BFF34F8FBFF36F8F00BF00BFFEE758
:104C20004FF080500C490860BFF34F8FBFF36F8F78
:104C300070BD000024000020EC0100203C0000209A
:104C400050000020A8040020300000203400002084
:104C5000400000205C00002004ED00E0012001493C
:104C600008607047480000202DE9F04105460F46D6
:104C700055B900BF502080F31188BFF34F8FBFF3A9
:104C80006F8F00BF00BFFEE7FFF7C8FE2C4600BFD6
:104C90005021EFF3118081F31188BFF34F8FBFF3E1
:104CA0006F8F00BF064694F85880022084F85800A1
:104CB000606D401C6065B8F1010F3BD1A06A08B976
:104CC000012000E0002050B900BF502080F311887F
:104CD000BFF34F8FBFF36F8F00BF00BFFEE71848D1
:104CE0000068A8B9201DFFF7A7FD94F82C1001203B
:104CF000884014490968084312490860E16A01EBD9
:104D00008101114A02EB8100211DFFF7E7FD04E05C
:104D100004F118010D48FFF7E1FD0D49E06A09684B
:104D2000C96A884206D917B10120386002E0012023
:104D30000849086000BF86F3118800BFBDE8F08114
:104D40005C0000203C000020EC01002094040020C6
:104D5000240000204800002070B504460D4654B9D8
:104D600000BF502080F31188BFF34F8FBFF36F8FC8
:104D700000BF00BFFEE70548016818312046FFF775
:104D800093FD01212846FEF7E1FE70BD24000020BE
:104D900070B505460E46144655B900BF502080F345
:104DA0001188BFF34F8FBFF36F8F00BF00BFFEE7C7
:104DB0000648016818312846FFF790FD0CB14FF006
:104DC000FF3621463046FEF7C1FE70BD24000020AC
:104DD00070B505462C46002D4BD02649E06A09687F
:104DE000C96A884245D2A06900F0004028B921482C
:104DF0000068C06AC0F12000A061E16A01EB810196
:104E00001D4A02EB81016069884201D1012000E066
:104E1000002050B3201DFFF70FFD78B9E06A00EBCA
:104E20008000154951F8200040B994F82C10012059
:104E30008840124909688143104801600D480068A4
:104E4000C06AE06294F82C10012088400B49096880
:104E500008430A490860E16A01EB8101064A02EB56
:104E60008100211DFFF73AFD03E002480068C06A97
:104E7000E06270BD24000020EC0100203C00002016
:104E800050B900BF502181F31188BFF34F8FBFF39A
:104E90006F8F00BF00BFFEE7034909680160034947
:104EA00009684160704700004C0000203800002075
:104EB0001CB51D4800210B468022CDE900101BA126
:104EC0001C4800F04DFC0446012C02D100F064FEA9
:104ED0000446012C15D100BF502080F31188BFF388
:104EE0004F8FBFF36F8F00BF4FF0FF301249086044
:104EF00001201249086000201149086000F070F894
:104F000010E0601C08B1012000E0002050B900BF93
:104F1000502080F31188BFF34F8FBFF36F8F00BF16
:104F200000BFFEE71CBD00005800002049444C456E
:104F300000000000C13E0008540000204000002096
:104F40003800002002480068401C01490860704792
:104F50005C0000201D48006818B101201C49086051
:104F600032E000201A4908601A480068B0FA80F060
:104F7000C0F11F0101EB8100174A52F8200008B16F
:104F8000012000E0002050B900BF502080F31188BC
:104F9000BFF34F8FBFF36F8F00BF00BFFEE701EB82
:104FA00081020D4B03EB820042685268426000F1BF
:104FB00008024368934202D14268526842604268E4
:104FC000D268064B1A6000BF704700005C000020EA
:104FD000480000203C000020EC01002024000020BC
:104FE0001CB5474800684749884201D0012000E0CD
:104FF000002050B900BF502080F31188BFF34F8FBD
:10500000BFF36F8F00BF00BFFEE73D4800683D491A
:10501000491E884201D0012000E0002050B900BFA5
:10502000502080F31188BFF34F8FBFF36F8F00BF05
:1050300000BFFEE73449084600780190FF200A4689
:1050400010700846007800909DF8000000F0F00015
:105050009DF80020904201D1012000E0002050B9CD
:1050600000BF502080F31188BFF34F8FBFF36F8FC5
:1050700000BF00BFFEE79DF8000000F05000234A8B
:1050800010700720224A106009E021480068401E85
:105090001F4A10609DF800004006000E00909DF829
:1050A000000000F080008028EFD01948006800025E
:1050B000174A10601046008800F4E0601060124A41
:1050C000019810700E482030006840F470000C49C0
:1050D000203108600846006840F070400860FFF723
:1050E0009BFC00200B490860FBF7F0F80A480068B9
:1050F00040F0404008490860FBF7D8F800201CBD8C
:1051000000ED00E071C20F4100E400E090000020DB
:10511000940000208C00002034EF00E010B500BFA8
:10512000502080F31188BFF34F8FBFF36F8F00BF04
:1051300000F05CFB18B14FF080500449086000BFDC
:10514000002080F3118800BF10BD000004ED00E0D6
:105150002DE9F84305460E4690460DB1012000E0CA
:10516000002050B900BF502080F31188BFF34F8F4B
:10517000BFF36F8F00BF00BFFEE70EB9002701E04D
:1051800005FB06F707F15400FFF702FA044644B1A5
:1051900004F1540943464A46314628460094FEF736
:1051A000A3FE2046BDE8F8832DE9FF4782B00546FF
:1051B0000E461F464FF0000A2C4654B900BF50203F
:1051C00080F31188BFF34F8FBFF36F8F00BF00BF15
:1051D000FEE70EB9206C08B9012000E0002050B9AC
:1051E00000BF502080F31188BFF34F8FBFF36F8F44
:1051F00000BF00BFFEE700F0E3FA08B9049808B961
:10520000012000E0002050B900BF502080F3118839
:10521000BFF34F8FBFF36F8F00BF00BFFEE700BF2C
:10522000FFF768FBD4F83890B9F1000F3DD0D4F8FF
:105230000C8031462046FEF795FDDFB9A9F101004B
:10524000A063206810B9FFF741FA6060206908B9CF
:10525000012000E0002010BB04F1100000F0CEFBA4
:10526000E8B14FF0805040490860BFF34F8FBFF363
:105270006F8F14E0C4F80C80606A08B9012000E068
:10528000002060B904F1240000F0B8FB38B14FF001
:10529000805035490860BFF34F8FBFF36F8FFFF722
:1052A00053FB012006B0BDE8F087049818B9FFF75A
:1052B0004BFB0020F6E7BAF1000F04D16846FFF778
:1052C000DFFD4FF0010AFFF73FFBFFF73BFEFFF763
:1052D00011FB94F94400401C10B9002084F84400EC
:1052E00094F94500401C10B9002084F84500FFF7F0
:1052F0002BFB04A9684600F0EDF940BB2046FEF701
:10530000F9FEF0B1206830B9FFF7F4FA6068FFF7F2
:105310005FFDFFF719FB04F124000499FFF71CFD62
:105320002046FFF7ECF800F0B5FB00287FF478AFDB
:105330004FF080500C490860BFF34F8FBFF36F8F61
:105340006EE72046FFF7DBF800F0A4FB68E7204695
:10535000FFF7D5F800F09EFB2046FEF7CBFE0028B5
:10536000EED000209EE7000004ED00E070B5054699
:105370000E462C4654B900BF502080F31188BFF36D
:105380004F8FBFF36F8F00BF00BFFEE7FFF7B2FA8A
:10539000D4E90F12206801FB020060600020A063C6
:1053A0002068A060E06B401E226C216800FB0210A8
:1053B000E060FF2084F8440084F845009EB920692D
:1053C00008B9012000E00020A8B904F1100000F0A5
:1053D00015FB80B14FF0805009490860BFF34F8F33
:1053E000BFF36F8F07E004F11000FFF74DFA04F1EF
:1053F0002400FFF749FAFFF7A7FA012070BD00006B
:1054000004ED00E02DE9FF4383B0064688461D46C3
:105410004FF00009344654B900BF502080F3118882
:10542000BFF34F8FBFF36F8F00BF00BFFEE7B8F130
:10543000000F01D1206C08B9012000E0002050B914
:1054400000BF502080F31188BFF34F8FBFF36F8FE1
:1054500000BF00BFFEE7022D02D1E06B012801D1A1
:10546000012000E0002050B900BF502080F31188D7
:10547000BFF34F8FBFF36F8F00BF00BFFEE700F099
:105480009FF908B9059808B9012000E0002050B93B
:1054900000BF502080F31188BFF34F8FBFF36F8F91
:1054A00000BF00BFFEE700BFFFF724FAA06BE16B6F
:1054B000884201D3022D38D12A4641462046FEF7C4
:1054C00066FC0746A06C68B129462046FEF72EFE12
:1054D00028B34FF080503C490860BFF34F8FBFF3B3
:1054E0006F8F1CE0606A08B9012000E0002068B9F5
:1054F00004F1240000F082FA88B14FF08050324964
:105500000860BFF34F8FBFF36F8F08E03FB14FF0DC
:1055100080502D490860BFF34F8FBFF36F8FFFF7A7
:1055200013FA012007B0BDE8F083059818B9FFF71A
:105530000BFA0020F6E7B9F1000F04D101A8FFF73C
:105540009FFC4FF00109FFF7FFF9FFF7FBFCFFF7A6
:10555000D1F994F94400401C10B9002084F84400AB
:1055600094F94500401C10B9002084F84500FFF76D
:10557000EBF905A901A800F0ADF8F0B92046FEF757
:10558000C6FDA0B104F110000599FFF7E5FB204628
:10559000FEF7B5FF00F07EFA002885D14FF080506D
:1055A00009490860BFF34F8FBFF36F8F7CE7204638
:1055B000FEF7A5FF00F06EFA76E72046FEF79FFFA4
:1055C00000F068FA0020ADE704ED00E02DE9F05F9F
:1055D00080468A4615461E46444654B900BF5020B0
:1055E00080F31188BFF34F8FBFF36F8F00BF00BFF1
:1055F000FEE7BAF1000F01D1206C08B9012000E0EC
:10560000002050B900BF502080F31188BFF34F8FA6
:10561000BFF36F8F00BF00BFFEE7022E02D1E06B29
:10562000012801D1012000E0002050B900BF502026
:1056300080F31188BFF34F8FBFF36F8F00BF00BFA0
:10564000FEE7FFF7EBF900BF5021EFF3118081F384
:105650001188BFF34F8FBFF36F8F00BF0746A06B5A
:10566000E16B884201D3022E2BD194F945B032462A
:1056700051462046FEF78BFB0BF10100C8B9A06C28
:1056800040B131462046FEF751FDB8B1B5B1012019
:10569000286013E0606A08B9012000E0002068B9C2
:1056A00004F1240000F0AAF940B13DB101202860C6
:1056B00004E00BF1010040B284F845004FF001090D
:1056C00001E04FF0000900BF87F3118800BF484692
:1056D000BDE8F09F70B504460D4654B900BF502098
:1056E00080F31188BFF34F8FBFF36F8F00BF00BFF0
:1056F000FEE755B900BF502080F31188BFF34F8FEC
:10570000BFF36F8F00BF00BFFEE7FFF7F3F812484B
:1057100003682868401C08B9002619E00F49206872
:105720000968884204D06068984201D801260FE0D9
:105730006068181A2968884209D228686168591A6D
:10574000401A28602046FFF79BFB002600E0012658
:10575000FFF7FAF8304670BD380000204C000020FA
:105760002DE9FF4F85B0804689461746DDE912AB2B
:10577000B800FEF70DFF064656B15C20FEF708FFA5
:1057800004460CB1266304E03046FFF7FBF800E066
:1057900000247CB10020CDE900ABCDE902403A46BF
:1057A00049464046089BFEF7B6FB2046FEF71AFA2C
:1057B000012501E04FF0FF35284609B0BDE8F08F24
:1057C0000549096809B9012005E00449096809B9D2
:1057D000022000E000207047400000205C00002014
:1057E0000149086870470000380000202DE9F041A9
:1057F0004FF0000844480068002877D1434800680B
:10580000451C4248056015BB41480068006808B95E
:10581000012000E0002050B900BF502080F3118823
:10582000BFF34F8FBFF36F8F00BF00BFFEE7384855
:1058300007683848006836490860364807603648C7
:105840000068401C34490860FEF7A0FD00BF3348E3
:10585000006885423CD300BF2D480068006808B945
:10586000012000E0002020B14FF0FF302B490860FC
:105870002DE027480068C068C4686668B54202D257
:105880002648066023E0201DFEF7D6FFA06A18B167
:1058900004F11800FEF7D0FF94F82C100120884086
:1058A0001F49096808431E490860E16A01EB81014C
:1058B0001C4A02EB8100211DFFF710F81A49E06A2B
:1058C0000968C96A8842C7D34FF00108C4E700BF1E
:1058D00015480068C06A00EB8000124951F82000AA
:1058E000012801D94FF0010805E0FFE70F480068E3
:1058F000401C0E4908600E48006808B14FF00108CE
:105900004046BDE8F08100005C0000203800002027
:10591000280000202C0000204C0000205400002013
:105920003C000020EC010020240000204400002066
:105930004800002070B505462C460026002D55D0A5
:105940002B480068844201D1012000E0002050B9BA
:1059500000BF502080F31188BFF34F8FBFF36F8FCC
:1059600000BF00BFFEE7206D50B900BF502080F39C
:105970001188BFF34F8FBFF36F8F00BF00BFFEE7EB
:10598000206D401E2065E16CE06A88422ED0206DBB
:1059900060BB201DFEF750FF78B9E06A00EB800085
:1059A000144951F8200040B994F82C100120884087
:1059B00011490968814310480160E06CE062E06AC7
:1059C000C0F12000A06194F82C10012088400A4901
:1059D0000968084308490860E16A01EB8101054A4A
:1059E00002EB8100211DFEF779FF0126304670BDD4
:1059F00024000020EC0100203C00002070B5064689
:105A0000F068C46854B900BF502080F31188BFF318
:105A10004F8FBFF36F8F00BF00BFFEE704F1180088
:105A2000FEF70AFF15480068A8B9201DFEF704FF1D
:105A300094F82C1001208840114909680843104946
:105A40000860E16A01EB81010E4A02EB8100211D31
:105A5000FEF744FF04E004F118010B48FEF73EFF97
:105A60000A49E06A0968C96A884204D90125012007
:105A70000749086000E00025284670BD5C00002052
:105A80003C000020EC0100209404002024000020B1
:105A90004800002070B5002400263648006850B940
:105AA00000BF502080F31188BFF34F8FBFF36F8F7B
:105AB00000BF00BFFEE7FEF71DFF2E480068401E36
:105AC0002C4908600846006800284FD12A48006821
:105AD00000284BD024E02948C068C46804F11800AD
